:100000000C9453000C947B000C947B000C947B00AC
:100010000C947B000C947B000C947B000C947B0074
:100020000C947B000C947B000C947B000C947B0064
:100030000C947B000C947B000C947B000C947B0054
:100040000C9498010C943A020C9408020C94E2016E
:100050000C947B000C947B000C947B000C947B0034
:100060000C947B000C947B0000000000250028000D
:100070002B0000000000240027002A0004040404D0
:100080000404040402020202020203030303030342
:10009000010204081020408001020408102001021F
:1000A00004081020160311241FBECFEFD8E0DEBFD6
:1000B000CDBF11E0A0E0B1E0E0EAF6E002C00590BB
:1000C0000D92AA32B107D9F722E0AAE2B1E001C04D
:1000D0001D92A633B207E1F710E0C3E5D0E004C0FB
:1000E0002197FE010E944303C235D107C9F70E9440
:1000F00062020C944E030C940000CF92DF92EF92B8
:10010000FF920F931F93CF93DF936C017A018B01C2
:10011000C0E0D0E0CE15DF0589F0D8016D918D01EA
:10012000D601ED91FC910190F081E02DC601099579
:10013000892B11F47E0102C02196ECCFC701DF911B
:10014000CF911F910F91FF90EF90DF90CF90089586
:10015000FC01918D828D981761F0828DDF01A80FCF
:10016000B11D5D968C91928D9F5F9F73928F90E0F1
:1001700008958FEF9FEF0895FC01918D828D981760
:1001800031F0828DE80FF11D858D90E008958FEF9D
:100190009FEF0895FC01918D228D892F90E0805C66
:1001A0009F4F821B91098F739927089589E991E0E8
:1001B0000E94CA0021E0892B09F420E0822F0895D3
:1001C000FC01848DDF01A80FB11DA35ABF4F2C91F4
:1001D000848D90E001968F739927848FA689B789C3
:1001E0002C93A089B1898C9180648C93938D848D9C
:1001F000981306C00288F389E02D80818F7D80836B
:100200000895EF92FF920F931F93CF93DF93EC012A
:1002100081E0888F9B8D8C8D981305C0E889F989C2
:10022000808185FD24C0F62E0B8D10E00F5F1F4FDF
:100230000F731127E02E8C8DE8120CC00FB607FC4F
:10024000FACFE889F989808185FFF5CFCE010E9438
:10025000E000F1CF8B8DFE01E80FF11DE35AFF4F57
:10026000F0820B8FEA89FB898081806207C0EE896A
:10027000FF896083E889F98980818064808381E0D7
:1002800090E0DF91CF911F910F91FF90EF90089533
:10029000CF93DF93EC01888D8823C9F0EA89FB892D
:1002A000808185FD05C0A889B9898C9186FD0FC024
:1002B0000FB607FCF5CF808185FFF2CFA889B989F9
:1002C0008C9185FFEDCFCE010E94E000E7CFDF915A
:1002D000CF91089580E090E0892B29F00E94D6000C
:1002E00081110C9400000895CF93DF93009779F06B
:1002F000FC0101900020E9F73197AF01481B590B31
:10030000BC0189E991E00E947D00EC0102C0C0E0DF
:10031000D0E042E050E060E171E089E991E00E94C4
:100320007D008C0F9D1FDF91CF9108950E9449039E
:100330001F920F920FB60F9211242F933F938F931A
:100340009F93AF93BF938091950190919601A09157
:100350009701B09198013091940123E0230F2D373C
:1003600020F40196A11DB11D05C026E8230F0296B9
:10037000A11DB11D20939401809395019093960146
:10038000A0939701B0939801809190019091910171
:10039000A0919201B09193010196A11DB11D80938E
:1003A000900190939101A0939201B0939301BF911A
:1003B000AF919F918F913F912F910F900FBE0F9012
:1003C0001F9018951F920F920FB60F9211242F9322
:1003D0003F934F935F936F937F938F939F93AF93CD
:1003E000BF93EF93FF9389E991E00E94E000FF91B2
:1003F000EF91BF91AF919F918F917F916F915F919D
:100400004F913F912F910F900FBE0F901F90189515
:100410001F920F920FB60F9211242F938F939F93D9
:10042000EF93FF93E091A901F091AA018081E091FF
:10043000AF01F091B00182FD12C090818091B201B4
:100440008F5F8F732091B301821751F0E091B20159
:10045000F0E0E756FE4F958F8093B20101C0808196
:10046000FF91EF919F918F912F910F900FBE0F9061
:100470001F9018951F920F920FB60F9211248F9311
:100480009F93EF93FF938EB590918E01943678F4FD
:10049000E0918E0191E09E0F90938E01F0E0E65D79
:1004A000FE4F80838A3019F481E080938F0187E0CA
:1004B0008EBDFF91EF919F918F910F900FBE0F9086
:1004C0001F901895789484B5826084BD84B581604E
:1004D00084BD85B5826085BD85B5816085BD80910F
:1004E0006E00816080936E00109281008091810087
:1004F000826080938100809181008160809381007F
:10050000809180008160809380008091B100846040
:100510008093B1008091B00081608093B0008091A1
:100520007A00846080937A0080917A008260809360
:100530007A0080917A00816080937A0080917A00BD
:10054000806880937A001092C100E091A901F09137
:10055000AA0182E08083E091A501F091A6011082BA
:10056000E091A701F091A8018FEC80831092B10176
:10057000E091AD01F091AE0186E08083E091AB01A6
:10058000F091AC01808180618083E091AB01F091BA
:10059000AC01808188608083E091AB01F091AC0177
:1005A000808180688083E091AB01F091AC01808113
:1005B0008F7D80838CB580648CBDECE9F0E0249164
:1005C000E8E8F0E08491882399F090E0880F991F83
:1005D000FC01EE58FF4FA591B491FC01E859FF4F83
:1005E000859194918FB7F894EC91E22BEC938FBFA7
:1005F00010928F018CB580688CBD83E191E00E94E0
:10060000740180918F01882371F0E0918E01F0E0F8
:10061000E65DFE4F10828AE291E00E947401109222
:100620008E0110928F010E946A01EBCFE9E9F1E09F
:100630001382128288EE93E0A0E0B0E08483958379
:10064000A683B78384E091E09183808385EC90E07A
:100650009587848784EC90E09787868780EC90E08C
:10066000918B808B81EC90E0938B828B82EC90E07D
:10067000958B848B86EC90E0978B868B118E128EF7
:10068000138E148E0895EE0FFF1F0590F491E02D48
:10069000099481E090E0F8940C944E03F894FFCF15
:1006A0000000000001017D00CA00A800BC00480154
:1006B0000D0A0053504920536C61766520696E69BC
:0A06C0006369616C697A61646F0080
:00000001FF
